{
  "_format": "hh-sol-artifact-1",
  "contractName": "EGovernanceVoting",
  "sourceName": "contracts/EGovernanceVoting.sol",
  "abi": [
    {
      "inputs": [],
      "stateMutability": "nonpayable",
      "type": "constructor"
    },
    {
      "anonymous": false,
      "inputs": [
        {
          "indexed": true,
          "internalType": "uint256",
          "name": "id",
          "type": "uint256"
        },
        {
          "indexed": false,
          "internalType": "string",
          "name": "name",
          "type": "string"
        },
        {
          "indexed": false,
          "internalType": "uint256",
          "name": "startTime",
          "type": "uint256"
        },
        {
          "indexed": false,
          "internalType": "uint256",
          "name": "endTime",
          "type": "uint256"
        }
      ],
      "name": "ElectionCreated",
      "type": "event"
    },
    {
      "anonymous": false,
      "inputs": [
        {
          "indexed": true,
          "internalType": "uint256",
          "name": "electionId",
          "type": "uint256"
        }
      ],
      "name": "ElectionFinalized",
      "type": "event"
    },
    {
      "anonymous": false,
      "inputs": [
        {
          "indexed": true,
          "internalType": "uint256",
          "name": "electionId",
          "type": "uint256"
        },
        {
          "indexed": true,
          "internalType": "address",
          "name": "voter",
          "type": "address"
        },
        {
          "indexed": true,
          "internalType": "uint256",
          "name": "candidateIndex",
          "type": "uint256"
        }
      ],
      "name": "VoteCast",
      "type": "event"
    },
    {
      "inputs": [],
      "name": "admin",
      "outputs": [
        {
          "internalType": "address",
          "name": "",
          "type": "address"
        }
      ],
      "stateMutability": "view",
      "type": "function"
    },
    {
      "inputs": [
        {
          "internalType": "string",
          "name": "_name",
          "type": "string"
        },
        {
          "internalType": "string",
          "name": "_description",
          "type": "string"
        },
        {
          "internalType": "string[]",
          "name": "_candidates",
          "type": "string[]"
        },
        {
          "internalType": "uint256",
          "name": "_startTime",
          "type": "uint256"
        },
        {
          "internalType": "uint256",
          "name": "_endTime",
          "type": "uint256"
        }
      ],
      "name": "createElection",
      "outputs": [],
      "stateMutability": "nonpayable",
      "type": "function"
    },
    {
      "inputs": [],
      "name": "electionCount",
      "outputs": [
        {
          "internalType": "uint256",
          "name": "",
          "type": "uint256"
        }
      ],
      "stateMutability": "view",
      "type": "function"
    },
    {
      "inputs": [
        {
          "internalType": "uint256",
          "name": "_electionId",
          "type": "uint256"
        }
      ],
      "name": "finalizeElection",
      "outputs": [],
      "stateMutability": "nonpayable",
      "type": "function"
    },
    {
      "inputs": [],
      "name": "getAllElectionIds",
      "outputs": [
        {
          "internalType": "uint256[]",
          "name": "ids",
          "type": "uint256[]"
        }
      ],
      "stateMutability": "view",
      "type": "function"
    },
    {
      "inputs": [
        {
          "internalType": "uint256",
          "name": "_electionId",
          "type": "uint256"
        }
      ],
      "name": "getElection",
      "outputs": [
        {
          "internalType": "string",
          "name": "name",
          "type": "string"
        },
        {
          "internalType": "string",
          "name": "description",
          "type": "string"
        },
        {
          "internalType": "string[]",
          "name": "candidates",
          "type": "string[]"
        },
        {
          "internalType": "uint256",
          "name": "startTime",
          "type": "uint256"
        },
        {
          "internalType": "uint256",
          "name": "endTime",
          "type": "uint256"
        },
        {
          "internalType": "bool",
          "name": "finalized",
          "type": "bool"
        },
        {
          "internalType": "uint256",
          "name": "totalVotes",
          "type": "uint256"
        }
      ],
      "stateMutability": "view",
      "type": "function"
    },
    {
      "inputs": [
        {
          "internalType": "uint256",
          "name": "_electionId",
          "type": "uint256"
        }
      ],
      "name": "getResults",
      "outputs": [
        {
          "internalType": "string[]",
          "name": "candidates",
          "type": "string[]"
        },
        {
          "internalType": "uint256[]",
          "name": "candidateVotes",
          "type": "uint256[]"
        }
      ],
      "stateMutability": "view",
      "type": "function"
    },
    {
      "inputs": [
        {
          "internalType": "uint256",
          "name": "",
          "type": "uint256"
        },
        {
          "internalType": "address",
          "name": "",
          "type": "address"
        }
      ],
      "name": "hasVoted",
      "outputs": [
        {
          "internalType": "bool",
          "name": "",
          "type": "bool"
        }
      ],
      "stateMutability": "view",
      "type": "function"
    },
    {
      "inputs": [
        {
          "internalType": "uint256",
          "name": "_electionId",
          "type": "uint256"
        },
        {
          "internalType": "uint256",
          "name": "_candidateIndex",
          "type": "uint256"
        }
      ],
      "name": "vote",
      "outputs": [],
      "stateMutability": "nonpayable",
      "type": "function"
    },
    {
      "inputs": [
        {
          "internalType": "uint256",
          "name": "",
          "type": "uint256"
        },
        {
          "internalType": "uint256",
          "name": "",
          "type": "uint256"
        }
      ],
      "name": "votes",
      "outputs": [
        {
          "internalType": "uint256",
          "name": "",
          "type": "uint256"
        }
      ],
      "stateMutability": "view",
      "type": "function"
    }
  ],
  "bytecode": "0x608060405234801561001057600080fd5b50336000806101000a81548173ffffffffffffffffffffffffffffffffffffffff021916908373ffffffffffffffffffffffffffffffffffffffff160217905550612261806100606000396000f3fe608060405234801561001057600080fd5b506004361061009e5760003560e01c8063b384abef11610066578063b384abef14610174578063b6b3441f14610190578063c6e36a32146101ac578063dee40f74146101dc578063f851a440146101fa5761009e565b80631537052e146100a357806343859632146100bf57806381a60c0d146100ef578063997d2830146101205780639d7107771461013e575b600080fd5b6100bd60048036038101906100b89190611247565b610218565b005b6100d960048036038101906100d491906112d2565b610408565b6040516100e6919061132d565b60405180910390f35b61010960048036038101906101049190611247565b610437565b604051610117929190611558565b60405180910390f35b610128610656565b604051610135919061159e565b60405180910390f35b61015860048036038101906101539190611247565b61065c565b60405161016b9796959493929190611603565b60405180910390f35b61018e60048036038101906101899190611687565b610915565b005b6101aa60048036038101906101a591906118e2565b610e92565b005b6101c660048036038101906101c19190611687565b611115565b6040516101d3919061159e565b60405180910390f35b6101e461113a565b6040516101f191906119b1565b60405180910390f35b6102026111d9565b60405161020f91906119e2565b60405180910390f35b60008054906101000a900473ffffffffffffffffffffffffffffffffffffffff1673ffffffffffffffffffffffffffffffffffffffff163373ffffffffffffffffffffffffffffffffffffffff16146102a6576040517f08c379a000000000000000000000000000000000000000000000000000000000815260040161029d90611a49565b60405180910390fd5b806002600082815260200190815260200160002060060160009054906101000a900460ff1661030a576040517f08c379a000000000000000000000000000000000000000000000000000000000815260040161030190611ab5565b60405180910390fd5b600060026000848152602001908152602001600020905080600501544211610367576040517f08c379a000000000000000000000000000000000000000000000000000000000815260040161035e90611b21565b60405180910390fd5b8060060160019054906101000a900460ff16156103b9576040517f08c379a00000000000000000000000000000000000000000000000000000000081526004016103b090611b8d565b60405180910390fd5b60018160060160016101000a81548160ff021916908315150217905550827f91dd42272d56833844c782309d408c2ce0612df469d35fcbf2bef1a8e21e4f9560405160405180910390a2505050565b60046020528160005260406000206020528060005260406000206000915091509054906101000a900460ff1681565b606080826002600082815260200190815260200160002060060160009054906101000a900460ff1661049e576040517f08c379a000000000000000000000000000000000000000000000000000000000815260040161049590611ab5565b60405180910390fd5b600060026000868152602001908152602001600020905060008160030180549050905060008167ffffffffffffffff8111156104dd576104dc6116d1565b5b60405190808252806020026020018201604052801561050b5781602001602082028036833780820191505090505b50905060005b82811015610570576003600089815260200190815260200160002060008281526020019081526020016000205482828151811061055157610550611bad565b5b602002602001018181525050808061056890611c0b565b915050610511565b50826003018181805480602002602001604051908101604052809291908181526020016000905b828210156106435783829060005260206000200180546105b690611c82565b80601f01602080910402602001604051908101604052809291908181526020018280546105e290611c82565b801561062f5780601f106106045761010080835404028352916020019161062f565b820191906000526020600020905b81548152906001019060200180831161061257829003601f168201915b505050505081526020019060010190610597565b5050505091509550955050505050915091565b60015481565b6060806060600080600080876002600082815260200190815260200160002060060160009054906101000a900460ff166106cb576040517f08c379a00000000000000000000000000000000000000000000000000000000081526004016106c290611ab5565b60405180910390fd5b6000600260008b81526020019081526020016000209050806001018160020182600301836004015484600501548560060160019054906101000a900460ff16866007015486805461071b90611c82565b80601f016020809104026020016040519081016040528092919081815260200182805461074790611c82565b80156107945780601f1061076957610100808354040283529160200191610794565b820191906000526020600020905b81548152906001019060200180831161077757829003601f168201915b505050505096508580546107a790611c82565b80601f01602080910402602001604051908101604052809291908181526020018280546107d390611c82565b80156108205780601f106107f557610100808354040283529160200191610820565b820191906000526020600020905b81548152906001019060200180831161080357829003601f168201915b5050505050955084805480602002602001604051908101604052809291908181526020016000905b828210156108f457838290600052602060002001805461086790611c82565b80601f016020809104026020016040519081016040528092919081815260200182805461089390611c82565b80156108e05780601f106108b5576101008083540402835291602001916108e0565b820191906000526020600020905b8154815290600101906020018083116108c357829003601f168201915b505050505081526020019060010190610848565b50505050945098509850985098509850985098505050919395979092949650565b816002600082815260200190815260200160002060060160009054906101000a900460ff16610979576040517f08c379a000000000000000000000000000000000000000000000000000000000815260040161097090611ab5565b60405180910390fd5b8260006002600083815260200190815260200160002060405180610120016040529081600082015481526020016001820180546109b590611c82565b80601f01602080910402602001604051908101604052809291908181526020018280546109e190611c82565b8015610a2e5780601f10610a0357610100808354040283529160200191610a2e565b820191906000526020600020905b815481529060010190602001808311610a1157829003601f168201915b50505050508152602001600282018054610a4790611c82565b80601f0160208091040260200160405190810160405280929190818152602001828054610a7390611c82565b8015610ac05780601f10610a9557610100808354040283529160200191610ac0565b820191906000526020600020905b815481529060010190602001808311610aa357829003601f168201915b5050505050815260200160038201805480602002602001604051908101604052809291908181526020016000905b82821015610b9a578382906000526020600020018054610b0d90611c82565b80601f0160208091040260200160405190810160405280929190818152602001828054610b3990611c82565b8015610b865780601f10610b5b57610100808354040283529160200191610b86565b820191906000526020600020905b815481529060010190602001808311610b6957829003601f168201915b505050505081526020019060010190610aee565b50505050815260200160048201548152602001600582015481526020016006820160009054906101000a900460ff161515151581526020016006820160019054906101000a900460ff1615151515815260200160078201548152505090508060800151421015610c3f576040517f08c379a0000000000000000000000000000000000000000000000000000000008152600401610c3690611cff565b60405180910390fd5b8060a00151421115610c86576040517f08c379a0000000000000000000000000000000000000000000000000000000008152600401610c7d90611d6b565b60405180910390fd5b60006002600087815260200190815260200160002090506004600087815260200190815260200160002060003373ffffffffffffffffffffffffffffffffffffffff1673ffffffffffffffffffffffffffffffffffffffff16815260200190815260200160002060009054906101000a900460ff1615610d3b576040517f08c379a0000000000000000000000000000000000000000000000000000000008152600401610d3290611dd7565b60405180910390fd5b80600301805490508510610d84576040517f08c379a0000000000000000000000000000000000000000000000000000000008152600401610d7b90611e43565b60405180910390fd5b60016004600088815260200190815260200160002060003373ffffffffffffffffffffffffffffffffffffffff1673ffffffffffffffffffffffffffffffffffffffff16815260200190815260200160002060006101000a81548160ff02191690831515021790555060016003600088815260200190815260200160002060008781526020019081526020016000206000828254610e229190611e63565b925050819055506001816007016000828254610e3e9190611e63565b92505081905550843373ffffffffffffffffffffffffffffffffffffffff16877f2acce567deca3aabf56327adbb4524bd5318936eaefa69e3a5208ffda0cfec0960405160405180910390a4505050505050565b60008054906101000a900473ffffffffffffffffffffffffffffffffffffffff1673ffffffffffffffffffffffffffffffffffffffff163373ffffffffffffffffffffffffffffffffffffffff1614610f20576040517f08c379a0000000000000000000000000000000000000000000000000000000008152600401610f1790611a49565b60405180910390fd5b600283511015610f65576040517f08c379a0000000000000000000000000000000000000000000000000000000008152600401610f5c90611ee3565b60405180910390fd5b818111610fa7576040517f08c379a0000000000000000000000000000000000000000000000000000000008152600401610f9e90611f4f565b60405180910390fd5b6001806000828254610fb99190611e63565b9250508190555060006002600060015481526020019081526020016000209050600154816000018190555085816001019081610ff5919061211b565b5084816002019081611007919061211b565b5082816004018190555081816005018190555060018160060160006101000a81548160ff02191690831515021790555060008160060160016101000a81548160ff0219169083151502179055506000816007018190555060005b84518110156110ce578160030185828151811061108157611080611bad565b5b60200260200101519080600181540180825580915050600190039060005260206000200160009091909190915090816110ba919061211b565b5080806110c690611c0b565b915050611061565b506001547fe7a0aae5d733e07e246dea86213a1ac1b0aa8554bde889bb75c12752f44e53d9878585604051611105939291906121ed565b60405180910390a2505050505050565b6003602052816000526040600020602052806000526040600020600091509150505481565b606060015467ffffffffffffffff811115611158576111576116d1565b5b6040519080825280602002602001820160405280156111865781602001602082028036833780820191505090505b50905060005b6001548110156111d5576001816111a39190611e63565b8282815181106111b6576111b5611bad565b5b60200260200101818152505080806111cd90611c0b565b91505061118c565b5090565b60008054906101000a900473ffffffffffffffffffffffffffffffffffffffff1681565b6000604051905090565b600080fd5b600080fd5b6000819050919050565b61122481611211565b811461122f57600080fd5b50565b6000813590506112418161121b565b92915050565b60006020828403121561125d5761125c611207565b5b600061126b84828501611232565b91505092915050565b600073ffffffffffffffffffffffffffffffffffffffff82169050919050565b600061129f82611274565b9050919050565b6112af81611294565b81146112ba57600080fd5b50565b6000813590506112cc816112a6565b92915050565b600080604083850312156112e9576112e8611207565b5b60006112f785828601611232565b9250506020611308858286016112bd565b9150509250929050565b60008115159050919050565b61132781611312565b82525050565b6000602082019050611342600083018461131e565b92915050565b600081519050919050565b600082825260208201905092915050565b6000819050602082019050919050565b600081519050919050565b600082825260208201905092915050565b60005b838110156113ae578082015181840152602081019050611393565b60008484015250505050565b6000601f19601f8301169050919050565b60006113d682611374565b6113e0818561137f565b93506113f0818560208601611390565b6113f9816113ba565b840191505092915050565b600061141083836113cb565b905092915050565b6000602082019050919050565b600061143082611348565b61143a8185611353565b93508360208202850161144c85611364565b8060005b8581101561148857848403895281516114698582611404565b945061147483611418565b925060208a01995050600181019050611450565b50829750879550505050505092915050565b600081519050919050565b600082825260208201905092915050565b6000819050602082019050919050565b6114cf81611211565b82525050565b60006114e183836114c6565b60208301905092915050565b6000602082019050919050565b60006115058261149a565b61150f81856114a5565b935061151a836114b6565b8060005b8381101561154b57815161153288826114d5565b975061153d836114ed565b92505060018101905061151e565b5085935050505092915050565b600060408201905081810360008301526115728185611425565b9050818103602083015261158681846114fa565b90509392505050565b61159881611211565b82525050565b60006020820190506115b3600083018461158f565b92915050565b600082825260208201905092915050565b60006115d582611374565b6115df81856115b9565b93506115ef818560208601611390565b6115f8816113ba565b840191505092915050565b600060e082019050818103600083015261161d818a6115ca565b9050818103602083015261163181896115ca565b905081810360408301526116458188611425565b9050611654606083018761158f565b611661608083018661158f565b61166e60a083018561131e565b61167b60c083018461158f565b98975050505050505050565b6000806040838503121561169e5761169d611207565b5b60006116ac85828601611232565b92505060206116bd85828601611232565b9150509250929050565b600080fd5b600080fd5b7f4e487b7100000000000000000000000000000000000000000000000000000000600052604160045260246000fd5b611709826113ba565b810181811067ffffffffffffffff82111715611728576117276116d1565b5b80604052505050565b600061173b6111fd565b90506117478282611700565b919050565b600067ffffffffffffffff821115611767576117666116d1565b5b611770826113ba565b9050602081019050919050565b82818337600083830152505050565b600061179f61179a8461174c565b611731565b9050828152602081018484840111156117bb576117ba6116cc565b5b6117c684828561177d565b509392505050565b600082601f8301126117e3576117e26116c7565b5b81356117f384826020860161178c565b91505092915050565b600067ffffffffffffffff821115611817576118166116d1565b5b602082029050602081019050919050565b600080fd5b600061184061183b846117fc565b611731565b9050808382526020820190506020840283018581111561186357611862611828565b5b835b818110156118aa57803567ffffffffffffffff811115611888576118876116c7565b5b80860161189589826117ce565b85526020850194505050602081019050611865565b5050509392505050565b600082601f8301126118c9576118c86116c7565b5b81356118d984826020860161182d565b91505092915050565b600080600080600060a086880312156118fe576118fd611207565b5b600086013567ffffffffffffffff81111561191c5761191b61120c565b5b611928888289016117ce565b955050602086013567ffffffffffffffff8111156119495761194861120c565b5b611955888289016117ce565b945050604086013567ffffffffffffffff8111156119765761197561120c565b5b611982888289016118b4565b935050606061199388828901611232565b92505060806119a488828901611232565b9150509295509295909350565b600060208201905081810360008301526119cb81846114fa565b905092915050565b6119dc81611294565b82525050565b60006020820190506119f760008301846119d3565b92915050565b7f4f6e6c792061646d696e00000000000000000000000000000000000000000000600082015250565b6000611a33600a836115b9565b9150611a3e826119fd565b602082019050919050565b60006020820190508181036000830152611a6281611a26565b9050919050565b7f456c656374696f6e20646f6573206e6f74206578697374000000000000000000600082015250565b6000611a9f6017836115b9565b9150611aaa82611a69565b602082019050919050565b60006020820190508181036000830152611ace81611a92565b9050919050565b7f456c656374696f6e206e6f7420656e6465640000000000000000000000000000600082015250565b6000611b0b6012836115b9565b9150611b1682611ad5565b602082019050919050565b60006020820190508181036000830152611b3a81611afe565b9050919050565b7f416c72656164792066696e616c697a6564000000000000000000000000000000600082015250565b6000611b776011836115b9565b9150611b8282611b41565b602082019050919050565b60006020820190508181036000830152611ba681611b6a565b9050919050565b7f4e487b7100000000000000000000000000000000000000000000000000000000600052603260045260246000fd5b7f4e487b7100000000000000000000000000000000000000000000000000000000600052601160045260246000fd5b6000611c1682611211565b91507fffffffffffffffffffffffffffffffffffffffffffffffffffffffffffffffff8203611c4857611c47611bdc565b5b600182019050919050565b7f4e487b7100000000000000000000000000000000000000000000000000000000600052602260045260246000fd5b60006002820490506001821680611c9a57607f821691505b602082108103611cad57611cac611c53565b5b50919050565b7f456c656374696f6e206e6f742073746172746564000000000000000000000000600082015250565b6000611ce96014836115b9565b9150611cf482611cb3565b602082019050919050565b60006020820190508181036000830152611d1881611cdc565b9050919050565b7f456c656374696f6e20656e646564000000000000000000000000000000000000600082015250565b6000611d55600e836115b9565b9150611d6082611d1f565b602082019050919050565b60006020820190508181036000830152611d8481611d48565b9050919050565b7f416c726561647920766f74656400000000000000000000000000000000000000600082015250565b6000611dc1600d836115b9565b9150611dcc82611d8b565b602082019050919050565b60006020820190508181036000830152611df081611db4565b9050919050565b7f496e76616c69642063616e646964617465000000000000000000000000000000600082015250565b6000611e2d6011836115b9565b9150611e3882611df7565b602082019050919050565b60006020820190508181036000830152611e5c81611e20565b9050919050565b6000611e6e82611211565b9150611e7983611211565b9250828201905080821115611e9157611e90611bdc565b5b92915050565b7f4174206c6561737420322063616e646964617465730000000000000000000000600082015250565b6000611ecd6015836115b9565b9150611ed882611e97565b602082019050919050565b60006020820190508181036000830152611efc81611ec0565b9050919050565b7f496e76616c69642074696d652072616e67650000000000000000000000000000600082015250565b6000611f396012836115b9565b9150611f4482611f03565b602082019050919050565b60006020820190508181036000830152611f6881611f2c565b9050919050565b60008190508160005260206000209050919050565b60006020601f8301049050919050565b600082821b905092915050565b600060088302611fd17fffffffffffffffffffffffffffffffffffffffffffffffffffffffffffffffff82611f94565b611fdb8683611f94565b95508019841693508086168417925050509392505050565b6000819050919050565b600061201861201361200e84611211565b611ff3565b611211565b9050919050565b6000819050919050565b61203283611ffd565b61204661203e8261201f565b848454611fa1565b825550505050565b600090565b61205b61204e565b612066818484612029565b505050565b5b8181101561208a5761207f600082612053565b60018101905061206c565b5050565b601f8211156120cf576120a081611f6f565b6120a984611f84565b810160208510156120b8578190505b6120cc6120c485611f84565b83018261206b565b50505b505050565b600082821c905092915050565b60006120f2600019846008026120d4565b1980831691505092915050565b600061210b83836120e1565b9150826002028217905092915050565b61212482611374565b67ffffffffffffffff81111561213d5761213c6116d1565b5b6121478254611c82565b61215282828561208e565b600060209050601f8311600181146121855760008415612173578287015190505b61217d85826120ff565b8655506121e5565b601f19841661219386611f6f565b60005b828110156121bb57848901518255600182019150602085019450602081019050612196565b868310156121d857848901516121d4601f8916826120e1565b8355505b6001600288020188555050505b505050505050565b6000606082019050818103600083015261220781866115ca565b9050612216602083018561158f565b612223604083018461158f565b94935050505056fea2646970667358221220fd7c3d6302a1954f26ba9a3d28e3d0a3af1c40fe5bca7ab4f96812806ee4ac3764736f6c63430008140033",
  "linkReferences": {},
  "deployedLinkReferences": {}
}