{
  "_format": "hh-sol-artifact-1",
  "contractName": "LandRegistry",
  "sourceName": "contracts/LandRegistry.sol",
  "abi": [
    {
      "inputs": [],
      "stateMutability": "nonpayable",
      "type": "constructor"
    },
    {
      "anonymous": false,
      "inputs": [
        {
          "indexed": true,
          "internalType": "uint256",
          "name": "parcelId",
          "type": "uint256"
        },
        {
          "indexed": true,
          "internalType": "address",
          "name": "owner",
          "type": "address"
        },
        {
          "indexed": false,
          "internalType": "string",
          "name": "location",
          "type": "string"
        },
        {
          "indexed": false,
          "internalType": "uint256",
          "name": "area",
          "type": "uint256"
        },
        {
          "indexed": false,
          "internalType": "string",
          "name": "documentHash",
          "type": "string"
        }
      ],
      "name": "LandRegistered",
      "type": "event"
    },
    {
      "anonymous": false,
      "inputs": [
        {
          "indexed": true,
          "internalType": "uint256",
          "name": "parcelId",
          "type": "uint256"
        },
        {
          "indexed": true,
          "internalType": "address",
          "name": "previousOwner",
          "type": "address"
        },
        {
          "indexed": true,
          "internalType": "address",
          "name": "newOwner",
          "type": "address"
        }
      ],
      "name": "LandTransferred",
      "type": "event"
    },
    {
      "anonymous": false,
      "inputs": [
        {
          "indexed": true,
          "internalType": "uint256",
          "name": "parcelId",
          "type": "uint256"
        }
      ],
      "name": "LandVerified",
      "type": "event"
    },
    {
      "anonymous": false,
      "inputs": [
        {
          "indexed": true,
          "internalType": "uint256",
          "name": "parcelId",
          "type": "uint256"
        },
        {
          "indexed": true,
          "internalType": "address",
          "name": "currentOwner",
          "type": "address"
        },
        {
          "indexed": true,
          "internalType": "address",
          "name": "proposedOwner",
          "type": "address"
        }
      ],
      "name": "TransferRequested",
      "type": "event"
    },
    {
      "inputs": [],
      "name": "admin",
      "outputs": [
        {
          "internalType": "address",
          "name": "",
          "type": "address"
        }
      ],
      "stateMutability": "view",
      "type": "function"
    },
    {
      "inputs": [
        {
          "internalType": "uint256",
          "name": "_parcelId",
          "type": "uint256"
        }
      ],
      "name": "approveTransfer",
      "outputs": [],
      "stateMutability": "nonpayable",
      "type": "function"
    },
    {
      "inputs": [],
      "name": "getAllParcelIds",
      "outputs": [
        {
          "internalType": "uint256[]",
          "name": "ids",
          "type": "uint256[]"
        }
      ],
      "stateMutability": "view",
      "type": "function"
    },
    {
      "inputs": [
        {
          "internalType": "uint256",
          "name": "_parcelId",
          "type": "uint256"
        }
      ],
      "name": "getParcel",
      "outputs": [
        {
          "internalType": "uint256",
          "name": "id",
          "type": "uint256"
        },
        {
          "internalType": "address",
          "name": "owner",
          "type": "address"
        },
        {
          "internalType": "string",
          "name": "location",
          "type": "string"
        },
        {
          "internalType": "uint256",
          "name": "area",
          "type": "uint256"
        },
        {
          "internalType": "string",
          "name": "documentHash",
          "type": "string"
        },
        {
          "internalType": "bool",
          "name": "isVerified",
          "type": "bool"
        },
        {
          "internalType": "uint256",
          "name": "registeredAt",
          "type": "uint256"
        }
      ],
      "stateMutability": "view",
      "type": "function"
    },
    {
      "inputs": [
        {
          "internalType": "uint256",
          "name": "_parcelId",
          "type": "uint256"
        }
      ],
      "name": "getPendingTransfer",
      "outputs": [
        {
          "internalType": "address",
          "name": "proposedOwner",
          "type": "address"
        }
      ],
      "stateMutability": "view",
      "type": "function"
    },
    {
      "inputs": [],
      "name": "parcelCount",
      "outputs": [
        {
          "internalType": "uint256",
          "name": "",
          "type": "uint256"
        }
      ],
      "stateMutability": "view",
      "type": "function"
    },
    {
      "inputs": [
        {
          "internalType": "uint256",
          "name": "",
          "type": "uint256"
        }
      ],
      "name": "parcels",
      "outputs": [
        {
          "internalType": "uint256",
          "name": "id",
          "type": "uint256"
        },
        {
          "internalType": "address",
          "name": "owner",
          "type": "address"
        },
        {
          "internalType": "string",
          "name": "location",
          "type": "string"
        },
        {
          "internalType": "uint256",
          "name": "area",
          "type": "uint256"
        },
        {
          "internalType": "string",
          "name": "documentHash",
          "type": "string"
        },
        {
          "internalType": "bool",
          "name": "isVerified",
          "type": "bool"
        },
        {
          "internalType": "uint256",
          "name": "registeredAt",
          "type": "uint256"
        }
      ],
      "stateMutability": "view",
      "type": "function"
    },
    {
      "inputs": [
        {
          "internalType": "uint256",
          "name": "",
          "type": "uint256"
        }
      ],
      "name": "pendingTransfers",
      "outputs": [
        {
          "internalType": "address",
          "name": "",
          "type": "address"
        }
      ],
      "stateMutability": "view",
      "type": "function"
    },
    {
      "inputs": [
        {
          "internalType": "address",
          "name": "_owner",
          "type": "address"
        },
        {
          "internalType": "string",
          "name": "_location",
          "type": "string"
        },
        {
          "internalType": "uint256",
          "name": "_area",
          "type": "uint256"
        },
        {
          "internalType": "string",
          "name": "_documentHash",
          "type": "string"
        }
      ],
      "name": "registerLand",
      "outputs": [],
      "stateMutability": "nonpayable",
      "type": "function"
    },
    {
      "inputs": [
        {
          "internalType": "uint256",
          "name": "_parcelId",
          "type": "uint256"
        },
        {
          "internalType": "address",
          "name": "_newOwner",
          "type": "address"
        }
      ],
      "name": "requestTransfer",
      "outputs": [],
      "stateMutability": "nonpayable",
      "type": "function"
    },
    {
      "inputs": [
        {
          "internalType": "uint256",
          "name": "_parcelId",
          "type": "uint256"
        }
      ],
      "name": "verifyLand",
      "outputs": [],
      "stateMutability": "nonpayable",
      "type": "function"
    }
  ],
  "bytecode": "0x608060405234801561001057600080fd5b50336000806101000a81548173ffffffffffffffffffffffffffffffffffffffff021916908373ffffffffffffffffffffffffffffffffffffffff16021790555061201e806100606000396000f3fe608060405234801561001057600080fd5b50600436106100a95760003560e01c8063baf6574311610071578063baf6574314610184578063cacca4a0146101a2578063d8ccac38146101be578063f851a440146101da578063f91a7b89146101f8578063f9c43bdf14610228576100a9565b806340344232146100ae5780634d0434f2146100ca5780636577b86a146101005780636f7e770c14610130578063a0fa8ede1461014e575b600080fd5b6100c860048036038101906100c39190611238565b610244565b005b6100e460048036038101906100df9190611278565b61052e565b6040516100f7979695949392919061136e565b60405180910390f35b61011a60048036038101906101159190611278565b610724565b60405161012791906113eb565b60405180910390f35b610138610757565b60405161014591906114c4565b60405180910390f35b61016860048036038101906101639190611278565b6107f6565b60405161017b979695949392919061136e565b60405180910390f35b61018c610975565b60405161019991906114e6565b60405180910390f35b6101bc60048036038101906101b79190611278565b61097b565b005b6101d860048036038101906101d39190611636565b610c29565b005b6101e2610f38565b6040516101ef91906113eb565b60405180910390f35b610212600480360381019061020d9190611278565b610f5c565b60405161021f91906113eb565b60405180910390f35b610242600480360381019061023d9190611278565b610fec565b005b8160008111801561025757506001548111155b610296576040517f08c379a000000000000000000000000000000000000000000000000000000000815260040161028d90611721565b60405180910390fd5b823373ffffffffffffffffffffffffffffffffffffffff166002600083815260200190815260200160002060010160009054906101000a900473ffffffffffffffffffffffffffffffffffffffff1673ffffffffffffffffffffffffffffffffffffffff161461033b576040517f08c379a00000000000000000000000000000000000000000000000000000000081526004016103329061178d565b60405180910390fd5b600073ffffffffffffffffffffffffffffffffffffffff168373ffffffffffffffffffffffffffffffffffffffff16036103aa576040517f08c379a00000000000000000000000000000000000000000000000000000000081526004016103a1906117f9565b60405180910390fd5b3373ffffffffffffffffffffffffffffffffffffffff168373ffffffffffffffffffffffffffffffffffffffff1603610418576040517f08c379a000000000000000000000000000000000000000000000000000000000815260040161040f90611865565b60405180910390fd5b6002600085815260200190815260200160002060050160009054906101000a900460ff1661047b576040517f08c379a0000000000000000000000000000000000000000000000000000000008152600401610472906118f7565b60405180910390fd5b826003600086815260200190815260200160002060006101000a81548173ffffffffffffffffffffffffffffffffffffffff021916908373ffffffffffffffffffffffffffffffffffffffff1602179055508273ffffffffffffffffffffffffffffffffffffffff163373ffffffffffffffffffffffffffffffffffffffff16857fad86e5395107a44c23ae10207c8807efe6cd1bfc2980d8c2bcab8f3a24daccd160405160405180910390a450505050565b6000806060600060606000808760008111801561054d57506001548111155b61058c576040517f08c379a000000000000000000000000000000000000000000000000000000000815260040161058390611721565b60405180910390fd5b6000600260008b8152602001908152602001600020905080600001548160010160009054906101000a900473ffffffffffffffffffffffffffffffffffffffff16826002018360030154846004018560050160009054906101000a900460ff1686600601548480546105fd90611946565b80601f016020809104026020016040519081016040528092919081815260200182805461062990611946565b80156106765780601f1061064b57610100808354040283529160200191610676565b820191906000526020600020905b81548152906001019060200180831161065957829003601f168201915b5050505050945082805461068990611946565b80601f01602080910402602001604051908101604052809291908181526020018280546106b590611946565b80156107025780601f106106d757610100808354040283529160200191610702565b820191906000526020600020905b8154815290600101906020018083116106e557829003601f168201915b5050505050925098509850985098509850985098505050919395979092949650565b60036020528060005260406000206000915054906101000a900473ffffffffffffffffffffffffffffffffffffffff1681565b606060015467ffffffffffffffff8111156107755761077461150b565b5b6040519080825280602002602001820160405280156107a35781602001602082028036833780820191505090505b50905060005b6001548110156107f2576001816107c091906119a6565b8282815181106107d3576107d26119da565b5b60200260200101818152505080806107ea90611a09565b9150506107a9565b5090565b60026020528060005260406000206000915090508060000154908060010160009054906101000a900473ffffffffffffffffffffffffffffffffffffffff169080600201805461084590611946565b80601f016020809104026020016040519081016040528092919081815260200182805461087190611946565b80156108be5780601f10610893576101008083540402835291602001916108be565b820191906000526020600020905b8154815290600101906020018083116108a157829003601f168201915b5050505050908060030154908060040180546108d990611946565b80601f016020809104026020016040519081016040528092919081815260200182805461090590611946565b80156109525780601f1061092757610100808354040283529160200191610952565b820191906000526020600020905b81548152906001019060200180831161093557829003601f168201915b5050505050908060050160009054906101000a900460ff16908060060154905087565b60015481565b60008054906101000a900473ffffffffffffffffffffffffffffffffffffffff1673ffffffffffffffffffffffffffffffffffffffff163373ffffffffffffffffffffffffffffffffffffffff1614610a09576040517f08c379a0000000000000000000000000000000000000000000000000000000008152600401610a0090611ac3565b60405180910390fd5b80600081118015610a1c57506001548111155b610a5b576040517f08c379a0000000000000000000000000000000000000000000000000000000008152600401610a5290611721565b60405180910390fd5b60006003600084815260200190815260200160002060009054906101000a900473ffffffffffffffffffffffffffffffffffffffff169050600073ffffffffffffffffffffffffffffffffffffffff168173ffffffffffffffffffffffffffffffffffffffff1603610b02576040517f08c379a0000000000000000000000000000000000000000000000000000000008152600401610af990611b55565b60405180910390fd5b60006002600085815260200190815260200160002060010160009054906101000a900473ffffffffffffffffffffffffffffffffffffffff169050816002600086815260200190815260200160002060010160006101000a81548173ffffffffffffffffffffffffffffffffffffffff021916908373ffffffffffffffffffffffffffffffffffffffff1602179055506003600085815260200190815260200160002060006101000a81549073ffffffffffffffffffffffffffffffffffffffff02191690558173ffffffffffffffffffffffffffffffffffffffff168173ffffffffffffffffffffffffffffffffffffffff16857f1080b2f211753e5090f26ef7ffdc6bb3e66a125c7290200d10b502160bb1f56660405160405180910390a450505050565b60008054906101000a900473ffffffffffffffffffffffffffffffffffffffff1673ffffffffffffffffffffffffffffffffffffffff163373ffffffffffffffffffffffffffffffffffffffff1614610cb7576040517f08c379a0000000000000000000000000000000000000000000000000000000008152600401610cae90611ac3565b60405180910390fd5b600073ffffffffffffffffffffffffffffffffffffffff168473ffffffffffffffffffffffffffffffffffffffff1603610d26576040517f08c379a0000000000000000000000000000000000000000000000000000000008152600401610d1d90611bc1565b60405180910390fd5b6000835111610d6a576040517f08c379a0000000000000000000000000000000000000000000000000000000008152600401610d6190611c2d565b60405180910390fd5b60008211610dad576040517f08c379a0000000000000000000000000000000000000000000000000000000008152600401610da490611c99565b60405180910390fd5b6001806000828254610dbf91906119a6565b925050819055506040518060e0016040528060015481526020018573ffffffffffffffffffffffffffffffffffffffff168152602001848152602001838152602001828152602001600015158152602001428152506002600060015481526020019081526020016000206000820151816000015560208201518160010160006101000a81548173ffffffffffffffffffffffffffffffffffffffff021916908373ffffffffffffffffffffffffffffffffffffffff1602179055506040820151816002019081610e8f9190611e65565b50606082015181600301556080820151816004019081610eaf9190611e65565b5060a08201518160050160006101000a81548160ff02191690831515021790555060c082015181600601559050508373ffffffffffffffffffffffffffffffffffffffff166001547f691df7fac800e6222824008ff07d73ff677b2f461cd08505b09c7acb7b68ac9d858585604051610f2a93929190611f37565b60405180910390a350505050565b60008054906101000a900473ffffffffffffffffffffffffffffffffffffffff1681565b600081600081118015610f7157506001548111155b610fb0576040517f08c379a0000000000000000000000000000000000000000000000000000000008152600401610fa790611721565b60405180910390fd5b6003600084815260200190815260200160002060009054906101000a900473ffffffffffffffffffffffffffffffffffffffff16915050919050565b60008054906101000a900473ffffffffffffffffffffffffffffffffffffffff1673ffffffffffffffffffffffffffffffffffffffff163373ffffffffffffffffffffffffffffffffffffffff161461107a576040517f08c379a000000000000000000000000000000000000000000000000000000000815260040161107190611ac3565b60405180910390fd5b8060008111801561108d57506001548111155b6110cc576040517f08c379a00000000000000000000000000000000000000000000000000000000081526004016110c390611721565b60405180910390fd5b6002600083815260200190815260200160002060050160009054906101000a900460ff1615611130576040517f08c379a000000000000000000000000000000000000000000000000000000000815260040161112790611fc8565b60405180910390fd5b60016002600084815260200190815260200160002060050160006101000a81548160ff021916908315150217905550817f339a5d26292b459dbd1a911e53069f56bd3610e5ca60a312043fc90189c388bf60405160405180910390a25050565b6000604051905090565b600080fd5b600080fd5b6000819050919050565b6111b7816111a4565b81146111c257600080fd5b50565b6000813590506111d4816111ae565b92915050565b600073ffffffffffffffffffffffffffffffffffffffff82169050919050565b6000611205826111da565b9050919050565b611215816111fa565b811461122057600080fd5b50565b6000813590506112328161120c565b92915050565b6000806040838503121561124f5761124e61119a565b5b600061125d858286016111c5565b925050602061126e85828601611223565b9150509250929050565b60006020828403121561128e5761128d61119a565b5b600061129c848285016111c5565b91505092915050565b6112ae816111a4565b82525050565b6112bd816111fa565b82525050565b600081519050919050565b600082825260208201905092915050565b60005b838110156112fd5780820151818401526020810190506112e2565b60008484015250505050565b6000601f19601f8301169050919050565b6000611325826112c3565b61132f81856112ce565b935061133f8185602086016112df565b61134881611309565b840191505092915050565b60008115159050919050565b61136881611353565b82525050565b600060e082019050611383600083018a6112a5565b61139060208301896112b4565b81810360408301526113a2818861131a565b90506113b160608301876112a5565b81810360808301526113c3818661131a565b90506113d260a083018561135f565b6113df60c08301846112a5565b98975050505050505050565b600060208201905061140060008301846112b4565b92915050565b600081519050919050565b600082825260208201905092915050565b6000819050602082019050919050565b61143b816111a4565b82525050565b600061144d8383611432565b60208301905092915050565b6000602082019050919050565b600061147182611406565b61147b8185611411565b935061148683611422565b8060005b838110156114b757815161149e8882611441565b97506114a983611459565b92505060018101905061148a565b5085935050505092915050565b600060208201905081810360008301526114de8184611466565b905092915050565b60006020820190506114fb60008301846112a5565b92915050565b600080fd5b600080fd5b7f4e487b7100000000000000000000000000000000000000000000000000000000600052604160045260246000fd5b61154382611309565b810181811067ffffffffffffffff821117156115625761156161150b565b5b80604052505050565b6000611575611190565b9050611581828261153a565b919050565b600067ffffffffffffffff8211156115a1576115a061150b565b5b6115aa82611309565b9050602081019050919050565b82818337600083830152505050565b60006115d96115d484611586565b61156b565b9050828152602081018484840111156115f5576115f4611506565b5b6116008482856115b7565b509392505050565b600082601f83011261161d5761161c611501565b5b813561162d8482602086016115c6565b91505092915050565b600080600080608085870312156116505761164f61119a565b5b600061165e87828801611223565b945050602085013567ffffffffffffffff81111561167f5761167e61119f565b5b61168b87828801611608565b935050604061169c878288016111c5565b925050606085013567ffffffffffffffff8111156116bd576116bc61119f565b5b6116c987828801611608565b91505092959194509250565b7f50617263656c20646f6573206e6f742065786973740000000000000000000000600082015250565b600061170b6015836112ce565b9150611716826116d5565b602082019050919050565b6000602082019050818103600083015261173a816116fe565b9050919050565b7f4e6f74207468652070617263656c206f776e6572000000000000000000000000600082015250565b60006117776014836112ce565b915061178282611741565b602082019050919050565b600060208201905081810360008301526117a68161176a565b9050919050565b7f496e76616c6964206e6577206f776e6572000000000000000000000000000000600082015250565b60006117e36011836112ce565b91506117ee826117ad565b602082019050919050565b60006020820190508181036000830152611812816117d6565b9050919050565b7f43616e6e6f74207472616e7366657220746f20796f757273656c660000000000600082015250565b600061184f601b836112ce565b915061185a82611819565b602082019050919050565b6000602082019050818103600083015261187e81611842565b9050919050565b7f50617263656c206d757374206265207665726966696564206265666f7265207460008201527f72616e7366657200000000000000000000000000000000000000000000000000602082015250565b60006118e16027836112ce565b91506118ec82611885565b604082019050919050565b60006020820190508181036000830152611910816118d4565b9050919050565b7f4e487b7100000000000000000000000000000000000000000000000000000000600052602260045260246000fd5b6000600282049050600182168061195e57607f821691505b60208210810361197157611970611917565b5b50919050565b7f4e487b7100000000000000000000000000000000000000000000000000000000600052601160045260246000fd5b60006119b1826111a4565b91506119bc836111a4565b92508282019050808211156119d4576119d3611977565b5b92915050565b7f4e487b7100000000000000000000000000000000000000000000000000000000600052603260045260246000fd5b6000611a14826111a4565b91507fffffffffffffffffffffffffffffffffffffffffffffffffffffffffffffffff8203611a4657611a45611977565b5b600182019050919050565b7f4f6e6c792061646d696e20286c616e64206f666669636572292063616e20706560008201527f72666f726d207468697320616374696f6e000000000000000000000000000000602082015250565b6000611aad6031836112ce565b9150611ab882611a51565b604082019050919050565b60006020820190508181036000830152611adc81611aa0565b9050919050565b7f4e6f2070656e64696e67207472616e7366657220666f7220746869732070617260008201527f63656c0000000000000000000000000000000000000000000000000000000000602082015250565b6000611b3f6023836112ce565b9150611b4a82611ae3565b604082019050919050565b60006020820190508181036000830152611b6e81611b32565b9050919050565b7f496e76616c6964206f776e657220616464726573730000000000000000000000600082015250565b6000611bab6015836112ce565b9150611bb682611b75565b602082019050919050565b60006020820190508181036000830152611bda81611b9e565b9050919050565b7f4c6f636174696f6e2063616e6e6f7420626520656d7074790000000000000000600082015250565b6000611c176018836112ce565b9150611c2282611be1565b602082019050919050565b60006020820190508181036000830152611c4681611c0a565b9050919050565b7f41726561206d7573742062652067726561746572207468616e207a65726f0000600082015250565b6000611c83601e836112ce565b9150611c8e82611c4d565b602082019050919050565b60006020820190508181036000830152611cb281611c76565b9050919050565b60008190508160005260206000209050919050565b60006020601f8301049050919050565b600082821b905092915050565b600060088302611d1b7fffffffffffffffffffffffffffffffffffffffffffffffffffffffffffffffff82611cde565b611d258683611cde565b95508019841693508086168417925050509392505050565b6000819050919050565b6000611d62611d5d611d58846111a4565b611d3d565b6111a4565b9050919050565b6000819050919050565b611d7c83611d47565b611d90611d8882611d69565b848454611ceb565b825550505050565b600090565b611da5611d98565b611db0818484611d73565b505050565b5b81811015611dd457611dc9600082611d9d565b600181019050611db6565b5050565b601f821115611e1957611dea81611cb9565b611df384611cce565b81016020851015611e02578190505b611e16611e0e85611cce565b830182611db5565b50505b505050565b600082821c905092915050565b6000611e3c60001984600802611e1e565b1980831691505092915050565b6000611e558383611e2b565b9150826002028217905092915050565b611e6e826112c3565b67ffffffffffffffff811115611e8757611e8661150b565b5b611e918254611946565b611e9c828285611dd8565b600060209050601f831160018114611ecf5760008415611ebd578287015190505b611ec78582611e49565b865550611f2f565b601f198416611edd86611cb9565b60005b82811015611f0557848901518255600182019150602085019450602081019050611ee0565b86831015611f225784890151611f1e601f891682611e2b565b8355505b6001600288020188555050505b505050505050565b60006060820190508181036000830152611f51818661131a565b9050611f6060208301856112a5565b8181036040830152611f72818461131a565b9050949350505050565b7f416c726561647920766572696669656400000000000000000000000000000000600082015250565b6000611fb26010836112ce565b9150611fbd82611f7c565b602082019050919050565b60006020820190508181036000830152611fe181611fa5565b905091905056fea2646970667358221220d6adc5a7e1726362340a9959d655ef3a6142c94b0fb95db72c96cdf99762f59d64736f6c63430008140033",
  "linkReferences": {},
  "deployedLinkReferences": {}
}