{
  "_format": "hh-sol-artifact-1",
  "contractName": "PublicFundTracking",
  "sourceName": "contracts/PublicFundTracking.sol",
  "abi": [
    {
      "inputs": [],
      "stateMutability": "nonpayable",
      "type": "constructor"
    },
    {
      "anonymous": false,
      "inputs": [
        {
          "indexed": true,
          "internalType": "uint256",
          "name": "schemeId",
          "type": "uint256"
        },
        {
          "indexed": false,
          "internalType": "uint256",
          "name": "amount",
          "type": "uint256"
        },
        {
          "indexed": false,
          "internalType": "string",
          "name": "purpose",
          "type": "string"
        }
      ],
      "name": "FundReleased",
      "type": "event"
    },
    {
      "anonymous": false,
      "inputs": [
        {
          "indexed": true,
          "internalType": "uint256",
          "name": "schemeId",
          "type": "uint256"
        },
        {
          "indexed": false,
          "internalType": "uint256",
          "name": "milestoneIndex",
          "type": "uint256"
        },
        {
          "indexed": false,
          "internalType": "string",
          "name": "description",
          "type": "string"
        }
      ],
      "name": "MilestoneCompleted",
      "type": "event"
    },
    {
      "anonymous": false,
      "inputs": [
        {
          "indexed": true,
          "internalType": "uint256",
          "name": "schemeId",
          "type": "uint256"
        },
        {
          "indexed": false,
          "internalType": "string",
          "name": "name",
          "type": "string"
        },
        {
          "indexed": true,
          "internalType": "address",
          "name": "beneficiary",
          "type": "address"
        },
        {
          "indexed": false,
          "internalType": "uint256",
          "name": "allocated",
          "type": "uint256"
        }
      ],
      "name": "SchemeCreated",
      "type": "event"
    },
    {
      "anonymous": false,
      "inputs": [
        {
          "indexed": true,
          "internalType": "uint256",
          "name": "schemeId",
          "type": "uint256"
        }
      ],
      "name": "SchemeDeactivated",
      "type": "event"
    },
    {
      "inputs": [],
      "name": "admin",
      "outputs": [
        {
          "internalType": "address",
          "name": "",
          "type": "address"
        }
      ],
      "stateMutability": "view",
      "type": "function"
    },
    {
      "inputs": [
        {
          "internalType": "uint256",
          "name": "_schemeId",
          "type": "uint256"
        },
        {
          "internalType": "string",
          "name": "_description",
          "type": "string"
        }
      ],
      "name": "completeMilestone",
      "outputs": [],
      "stateMutability": "nonpayable",
      "type": "function"
    },
    {
      "inputs": [
        {
          "internalType": "string",
          "name": "_name",
          "type": "string"
        },
        {
          "internalType": "string",
          "name": "_description",
          "type": "string"
        },
        {
          "internalType": "address",
          "name": "_beneficiary",
          "type": "address"
        },
        {
          "internalType": "uint256",
          "name": "_allocated",
          "type": "uint256"
        }
      ],
      "name": "createScheme",
      "outputs": [],
      "stateMutability": "nonpayable",
      "type": "function"
    },
    {
      "inputs": [
        {
          "internalType": "uint256",
          "name": "_schemeId",
          "type": "uint256"
        }
      ],
      "name": "deactivateScheme",
      "outputs": [],
      "stateMutability": "nonpayable",
      "type": "function"
    },
    {
      "inputs": [
        {
          "internalType": "uint256",
          "name": "",
          "type": "uint256"
        },
        {
          "internalType": "uint256",
          "name": "",
          "type": "uint256"
        }
      ],
      "name": "fundReleases",
      "outputs": [
        {
          "internalType": "uint256",
          "name": "amount",
          "type": "uint256"
        },
        {
          "internalType": "string",
          "name": "purpose",
          "type": "string"
        },
        {
          "internalType": "uint256",
          "name": "timestamp",
          "type": "uint256"
        }
      ],
      "stateMutability": "view",
      "type": "function"
    },
    {
      "inputs": [],
      "name": "getAllSchemeIds",
      "outputs": [
        {
          "internalType": "uint256[]",
          "name": "ids",
          "type": "uint256[]"
        }
      ],
      "stateMutability": "view",
      "type": "function"
    },
    {
      "inputs": [
        {
          "internalType": "uint256",
          "name": "_schemeId",
          "type": "uint256"
        }
      ],
      "name": "getFundReleases",
      "outputs": [
        {
          "internalType": "uint256[]",
          "name": "amounts",
          "type": "uint256[]"
        },
        {
          "internalType": "string[]",
          "name": "purposes",
          "type": "string[]"
        },
        {
          "internalType": "uint256[]",
          "name": "timestamps",
          "type": "uint256[]"
        }
      ],
      "stateMutability": "view",
      "type": "function"
    },
    {
      "inputs": [
        {
          "internalType": "uint256",
          "name": "_schemeId",
          "type": "uint256"
        }
      ],
      "name": "getMilestones",
      "outputs": [
        {
          "internalType": "string[]",
          "name": "",
          "type": "string[]"
        }
      ],
      "stateMutability": "view",
      "type": "function"
    },
    {
      "inputs": [
        {
          "internalType": "uint256",
          "name": "_schemeId",
          "type": "uint256"
        }
      ],
      "name": "getScheme",
      "outputs": [
        {
          "internalType": "uint256",
          "name": "id",
          "type": "uint256"
        },
        {
          "internalType": "string",
          "name": "name",
          "type": "string"
        },
        {
          "internalType": "string",
          "name": "description",
          "type": "string"
        },
        {
          "internalType": "address",
          "name": "beneficiary",
          "type": "address"
        },
        {
          "internalType": "uint256",
          "name": "allocated",
          "type": "uint256"
        },
        {
          "internalType": "uint256",
          "name": "spent",
          "type": "uint256"
        },
        {
          "internalType": "bool",
          "name": "isActive",
          "type": "bool"
        },
        {
          "internalType": "uint256",
          "name": "createdAt",
          "type": "uint256"
        },
        {
          "internalType": "uint256",
          "name": "milestoneCount",
          "type": "uint256"
        }
      ],
      "stateMutability": "view",
      "type": "function"
    },
    {
      "inputs": [
        {
          "internalType": "uint256",
          "name": "",
          "type": "uint256"
        },
        {
          "internalType": "uint256",
          "name": "",
          "type": "uint256"
        }
      ],
      "name": "milestones",
      "outputs": [
        {
          "internalType": "string",
          "name": "",
          "type": "string"
        }
      ],
      "stateMutability": "view",
      "type": "function"
    },
    {
      "inputs": [
        {
          "internalType": "uint256",
          "name": "_schemeId",
          "type": "uint256"
        },
        {
          "internalType": "uint256",
          "name": "_amount",
          "type": "uint256"
        },
        {
          "internalType": "string",
          "name": "_purpose",
          "type": "string"
        }
      ],
      "name": "releaseFunds",
      "outputs": [],
      "stateMutability": "nonpayable",
      "type": "function"
    },
    {
      "inputs": [],
      "name": "schemeCount",
      "outputs": [
        {
          "internalType": "uint256",
          "name": "",
          "type": "uint256"
        }
      ],
      "stateMutability": "view",
      "type": "function"
    },
    {
      "inputs": [
        {
          "internalType": "uint256",
          "name": "",
          "type": "uint256"
        }
      ],
      "name": "schemes",
      "outputs": [
        {
          "internalType": "uint256",
          "name": "id",
          "type": "uint256"
        },
        {
          "internalType": "string",
          "name": "name",
          "type": "string"
        },
        {
          "internalType": "string",
          "name": "description",
          "type": "string"
        },
        {
          "internalType": "address",
          "name": "beneficiary",
          "type": "address"
        },
        {
          "internalType": "uint256",
          "name": "allocated",
          "type": "uint256"
        },
        {
          "internalType": "uint256",
          "name": "spent",
          "type": "uint256"
        },
        {
          "internalType": "bool",
          "name": "isActive",
          "type": "bool"
        },
        {
          "internalType": "uint256",
          "name": "createdAt",
          "type": "uint256"
        },
        {
          "internalType": "uint256",
          "name": "milestoneCount",
          "type": "uint256"
        }
      ],
      "stateMutability": "view",
      "type": "function"
    }
  ],
  "bytecode": "0x608060405234801561001057600080fd5b50336000806101000a81548173ffffffffffffffffffffffffffffffffffffffff021916908373ffffffffffffffffffffffffffffffffffffffff160217905550612752806100606000396000f3fe608060405234801561001057600080fd5b50600436106100cf5760003560e01c8063a8e63cc11161008c578063df0f1d2511610066578063df0f1d251461022e578063e35bb0fc14610260578063f6f5a1e114610298578063f851a440146102b4576100cf565b8063a8e63cc1146101a8578063ba5e1f2a146101c4578063bb52085e146101f6576100cf565b8063127eebd8146100d45780631c376c63146100f057806342c549c0146101205780637e18a4871461015057806390e6b9701461016c5780639d400f101461018a575b600080fd5b6100ee60048036038101906100e99190611866565b6102d2565b005b61010a600480360381019061010591906118d5565b6105a6565b6040516101179190611994565b60405180910390f35b61013a600480360381019061013591906119b6565b61065f565b6040516101479190611aef565b60405180910390f35b61016a60048036038101906101659190611b6f565b61079e565b005b610174610acf565b6040516101819190611c1d565b60405180910390f35b610192610ad5565b60405161019f9190611cf6565b60405180910390f35b6101c260048036038101906101bd91906119b6565b610b74565b005b6101de60048036038101906101d991906118d5565b610d19565b6040516101ed93929190611d18565b60405180910390f35b610210600480360381019061020b91906119b6565b610de8565b60405161022599989796959493929190611d80565b60405180910390f35b610248600480360381019061024391906119b6565b610f73565b60405161025793929190611e1b565b60405180910390f35b61027a600480360381019061027591906119b6565b61124c565b60405161028f99989796959493929190611d80565b60405180910390f35b6102b260048036038101906102ad9190611e67565b611454565b005b6102bc6116b2565b6040516102c99190611ec3565b60405180910390f35b60008054906101000a900473ffffffffffffffffffffffffffffffffffffffff1673ffffffffffffffffffffffffffffffffffffffff163373ffffffffffffffffffffffffffffffffffffffff1614610360576040517f08c379a000000000000000000000000000000000000000000000000000000000815260040161035790611f50565b60405180910390fd5b8260008111801561037357506001548111155b6103b2576040517f08c379a00000000000000000000000000000000000000000000000000000000081526004016103a990611fbc565b60405180910390fd5b836002600082815260200190815260200160002060060160009054906101000a900460ff16610416576040517f08c379a000000000000000000000000000000000000000000000000000000000815260040161040d90612028565b60405180910390fd5b600060026000878152602001908152602001600020905060008511610470576040517f08c379a000000000000000000000000000000000000000000000000000000000815260040161046790612094565b60405180910390fd5b806004015485826005015461048591906120e3565b11156104c6576040517f08c379a00000000000000000000000000000000000000000000000000000000081526004016104bd90612163565b60405180910390fd5b848160050160008282546104da91906120e3565b92505081905550600360008781526020019081526020016000206040518060600160405280878152602001868152602001428152509080600181540180825580915050600190039060005260206000209060030201600090919091909150600082015181600001556020820151816001019081610557919061238f565b50604082015181600201555050857fb1752eec1f1f2acea22bfc58025634d137457c79dfb058ee6cf8be6a4737f9a78686604051610596929190612461565b60405180910390a2505050505050565b600460205281600052604060002081815481106105c257600080fd5b906000526020600020016000915091505080546105de906121b2565b80601f016020809104026020016040519081016040528092919081815260200182805461060a906121b2565b80156106575780601f1061062c57610100808354040283529160200191610657565b820191906000526020600020905b81548152906001019060200180831161063a57829003601f168201915b505050505081565b60608160008111801561067457506001548111155b6106b3576040517f08c379a00000000000000000000000000000000000000000000000000000000081526004016106aa90611fbc565b60405180910390fd5b60046000848152602001908152602001600020805480602002602001604051908101604052809291908181526020016000905b82821015610792578382906000526020600020018054610705906121b2565b80601f0160208091040260200160405190810160405280929190818152602001828054610731906121b2565b801561077e5780601f106107535761010080835404028352916020019161077e565b820191906000526020600020905b81548152906001019060200180831161076157829003601f168201915b5050505050815260200190600101906106e6565b50505050915050919050565b60008054906101000a900473ffffffffffffffffffffffffffffffffffffffff1673ffffffffffffffffffffffffffffffffffffffff163373ffffffffffffffffffffffffffffffffffffffff161461082c576040517f08c379a000000000000000000000000000000000000000000000000000000000815260040161082390611f50565b60405180910390fd5b6000845111610870576040517f08c379a0000000000000000000000000000000000000000000000000000000008152600401610867906124dd565b60405180910390fd5b600073ffffffffffffffffffffffffffffffffffffffff168273ffffffffffffffffffffffffffffffffffffffff16036108df576040517f08c379a00000000000000000000000000000000000000000000000000000000081526004016108d690612549565b60405180910390fd5b60008111610922576040517f08c379a0000000000000000000000000000000000000000000000000000000008152600401610919906125b5565b60405180910390fd5b600180600082825461093491906120e3565b9250508190555060405180610120016040528060015481526020018581526020018481526020018373ffffffffffffffffffffffffffffffffffffffff1681526020018281526020016000815260200160011515815260200142815260200160008152506002600060015481526020019081526020016000206000820151816000015560208201518160010190816109cc919061238f565b5060408201518160020190816109e2919061238f565b5060608201518160030160006101000a81548173ffffffffffffffffffffffffffffffffffffffff021916908373ffffffffffffffffffffffffffffffffffffffff1602179055506080820151816004015560a0820151816005015560c08201518160060160006101000a81548160ff02191690831515021790555060e0820151816007015561010082015181600801559050508173ffffffffffffffffffffffffffffffffffffffff166001547f47b84e12b98b407bea0cd987e1153a7223ece6e2a5fdf1e7d4115fb06a25b8668684604051610ac19291906125d5565b60405180910390a350505050565b60015481565b606060015467ffffffffffffffff811115610af357610af261173b565b5b604051908082528060200260200182016040528015610b215781602001602082028036833780820191505090505b50905060005b600154811015610b7057600181610b3e91906120e3565b828281518110610b5157610b50612605565b5b6020026020010181815250508080610b6890612634565b915050610b27565b5090565b60008054906101000a900473ffffffffffffffffffffffffffffffffffffffff1673ffffffffffffffffffffffffffffffffffffffff163373ffffffffffffffffffffffffffffffffffffffff1614610c02576040517f08c379a0000000000000000000000000000000000000000000000000000000008152600401610bf990611f50565b60405180910390fd5b80600081118015610c1557506001548111155b610c54576040517f08c379a0000000000000000000000000000000000000000000000000000000008152600401610c4b90611fbc565b60405180910390fd5b816002600082815260200190815260200160002060060160009054906101000a900460ff16610cb8576040517f08c379a0000000000000000000000000000000000000000000000000000000008152600401610caf90612028565b60405180910390fd5b60006002600085815260200190815260200160002060060160006101000a81548160ff021916908315150217905550827f62e0aefb3c0b84f0db1c294ba39d88716cee5c4aaf8a3cf46c54df6cb5a9514a60405160405180910390a2505050565b60036020528160005260406000208181548110610d3557600080fd5b906000526020600020906003020160009150915050806000015490806001018054610d5f906121b2565b80601f0160208091040260200160405190810160405280929190818152602001828054610d8b906121b2565b8015610dd85780601f10610dad57610100808354040283529160200191610dd8565b820191906000526020600020905b815481529060010190602001808311610dbb57829003601f168201915b5050505050908060020154905083565b6002602052806000526040600020600091509050806000015490806001018054610e11906121b2565b80601f0160208091040260200160405190810160405280929190818152602001828054610e3d906121b2565b8015610e8a5780601f10610e5f57610100808354040283529160200191610e8a565b820191906000526020600020905b815481529060010190602001808311610e6d57829003601f168201915b505050505090806002018054610e9f906121b2565b80601f0160208091040260200160405190810160405280929190818152602001828054610ecb906121b2565b8015610f185780601f10610eed57610100808354040283529160200191610f18565b820191906000526020600020905b815481529060010190602001808311610efb57829003601f168201915b5050505050908060030160009054906101000a900473ffffffffffffffffffffffffffffffffffffffff16908060040154908060050154908060060160009054906101000a900460ff16908060070154908060080154905089565b606080606083600081118015610f8b57506001548111155b610fca576040517f08c379a0000000000000000000000000000000000000000000000000000000008152600401610fc190611fbc565b60405180910390fd5b60006003600087815260200190815260200160002090506000818054905090508067ffffffffffffffff8111156110045761100361173b565b5b6040519080825280602002602001820160405280156110325781602001602082028036833780820191505090505b5095508067ffffffffffffffff81111561104f5761104e61173b565b5b60405190808252806020026020018201604052801561108257816020015b606081526020019060019003908161106d5790505b5094508067ffffffffffffffff81111561109f5761109e61173b565b5b6040519080825280602002602001820160405280156110cd5781602001602082028036833780820191505090505b50935060005b81811015611241578281815481106110ee576110ed612605565b5b90600052602060002090600302016000015487828151811061111357611112612605565b5b60200260200101818152505082818154811061113257611131612605565b5b9060005260206000209060030201600101805461114e906121b2565b80601f016020809104026020016040519081016040528092919081815260200182805461117a906121b2565b80156111c75780601f1061119c576101008083540402835291602001916111c7565b820191906000526020600020905b8154815290600101906020018083116111aa57829003601f168201915b50505050508682815181106111df576111de612605565b5b60200260200101819052508281815481106111fd576111fc612605565b5b90600052602060002090600302016002015485828151811061122257611221612605565b5b602002602001018181525050808061123990612634565b9150506110d3565b505050509193909250565b60006060806000806000806000808960008111801561126d57506001548111155b6112ac576040517f08c379a00000000000000000000000000000000000000000000000000000000081526004016112a390611fbc565b60405180910390fd5b6000600260008d81526020019081526020016000209050806000015481600101826002018360030160009054906101000a900473ffffffffffffffffffffffffffffffffffffffff16846004015485600501548660060160009054906101000a900460ff1687600701548860080154878054611327906121b2565b80601f0160208091040260200160405190810160405280929190818152602001828054611353906121b2565b80156113a05780601f10611375576101008083540402835291602001916113a0565b820191906000526020600020905b81548152906001019060200180831161138357829003601f168201915b505050505097508680546113b3906121b2565b80601f01602080910402602001604051908101604052809291908181526020018280546113df906121b2565b801561142c5780601f106114015761010080835404028352916020019161142c565b820191906000526020600020905b81548152906001019060200180831161140f57829003601f168201915b505050505096509a509a509a509a509a509a509a509a509a5050509193959799909294969850565b60008054906101000a900473ffffffffffffffffffffffffffffffffffffffff1673ffffffffffffffffffffffffffffffffffffffff163373ffffffffffffffffffffffffffffffffffffffff16146114e2576040517f08c379a00000000000000000000000000000000000000000000000000000000081526004016114d990611f50565b60405180910390fd5b816000811180156114f557506001548111155b611534576040517f08c379a000000000000000000000000000000000000000000000000000000000815260040161152b90611fbc565b60405180910390fd5b826002600082815260200190815260200160002060060160009054906101000a900460ff16611598576040517f08c379a000000000000000000000000000000000000000000000000000000000815260040161158f90612028565b60405180910390fd5b60008351116115dc576040517f08c379a00000000000000000000000000000000000000000000000000000000081526004016115d3906126c8565b60405180910390fd5b6004600085815260200190815260200160002083908060018154018082558091505060019003906000526020600020016000909190919091509081611621919061238f565b50600160026000868152602001908152602001600020600801600082825461164991906120e3565b92505081905550837fa2efa9e8a9cb69da31069e845d86ddc3da31da23669a47f5ec5f60247d31a16b6001600260008881526020019081526020016000206008015461169591906126e8565b856040516116a4929190612461565b60405180910390a250505050565b60008054906101000a900473ffffffffffffffffffffffffffffffffffffffff1681565b6000604051905090565b600080fd5b600080fd5b6000819050919050565b6116fd816116ea565b811461170857600080fd5b50565b60008135905061171a816116f4565b92915050565b600080fd5b600080fd5b6000601f19601f8301169050919050565b7f4e487b7100000000000000000000000000000000000000000000000000000000600052604160045260246000fd5b6117738261172a565b810181811067ffffffffffffffff821117156117925761179161173b565b5b80604052505050565b60006117a56116d6565b90506117b1828261176a565b919050565b600067ffffffffffffffff8211156117d1576117d061173b565b5b6117da8261172a565b9050602081019050919050565b82818337600083830152505050565b6000611809611804846117b6565b61179b565b90508281526020810184848401111561182557611824611725565b5b6118308482856117e7565b509392505050565b600082601f83011261184d5761184c611720565b5b813561185d8482602086016117f6565b91505092915050565b60008060006060848603121561187f5761187e6116e0565b5b600061188d8682870161170b565b935050602061189e8682870161170b565b925050604084013567ffffffffffffffff8111156118bf576118be6116e5565b5b6118cb86828701611838565b9150509250925092565b600080604083850312156118ec576118eb6116e0565b5b60006118fa8582860161170b565b925050602061190b8582860161170b565b9150509250929050565b600081519050919050565b600082825260208201905092915050565b60005b8381101561194f578082015181840152602081019050611934565b60008484015250505050565b600061196682611915565b6119708185611920565b9350611980818560208601611931565b6119898161172a565b840191505092915050565b600060208201905081810360008301526119ae818461195b565b905092915050565b6000602082840312156119cc576119cb6116e0565b5b60006119da8482850161170b565b91505092915050565b600081519050919050565b600082825260208201905092915050565b6000819050602082019050919050565b600082825260208201905092915050565b6000611a2b82611915565b611a358185611a0f565b9350611a45818560208601611931565b611a4e8161172a565b840191505092915050565b6000611a658383611a20565b905092915050565b6000602082019050919050565b6000611a85826119e3565b611a8f81856119ee565b935083602082028501611aa1856119ff565b8060005b85811015611add5784840389528151611abe8582611a59565b9450611ac983611a6d565b925060208a01995050600181019050611aa5565b50829750879550505050505092915050565b60006020820190508181036000830152611b098184611a7a565b905092915050565b600073ffffffffffffffffffffffffffffffffffffffff82169050919050565b6000611b3c82611b11565b9050919050565b611b4c81611b31565b8114611b5757600080fd5b50565b600081359050611b6981611b43565b92915050565b60008060008060808587031215611b8957611b886116e0565b5b600085013567ffffffffffffffff811115611ba757611ba66116e5565b5b611bb387828801611838565b945050602085013567ffffffffffffffff811115611bd457611bd36116e5565b5b611be087828801611838565b9350506040611bf187828801611b5a565b9250506060611c028782880161170b565b91505092959194509250565b611c17816116ea565b82525050565b6000602082019050611c326000830184611c0e565b92915050565b600081519050919050565b600082825260208201905092915050565b6000819050602082019050919050565b611c6d816116ea565b82525050565b6000611c7f8383611c64565b60208301905092915050565b6000602082019050919050565b6000611ca382611c38565b611cad8185611c43565b9350611cb883611c54565b8060005b83811015611ce9578151611cd08882611c73565b9750611cdb83611c8b565b925050600181019050611cbc565b5085935050505092915050565b60006020820190508181036000830152611d108184611c98565b905092915050565b6000606082019050611d2d6000830186611c0e565b8181036020830152611d3f818561195b565b9050611d4e6040830184611c0e565b949350505050565b611d5f81611b31565b82525050565b60008115159050919050565b611d7a81611d65565b82525050565b600061012082019050611d96600083018c611c0e565b8181036020830152611da8818b61195b565b90508181036040830152611dbc818a61195b565b9050611dcb6060830189611d56565b611dd86080830188611c0e565b611de560a0830187611c0e565b611df260c0830186611d71565b611dff60e0830185611c0e565b611e0d610100830184611c0e565b9a9950505050505050505050565b60006060820190508181036000830152611e358186611c98565b90508181036020830152611e498185611a7a565b90508181036040830152611e5d8184611c98565b9050949350505050565b60008060408385031215611e7e57611e7d6116e0565b5b6000611e8c8582860161170b565b925050602083013567ffffffffffffffff811115611ead57611eac6116e5565b5b611eb985828601611838565b9150509250929050565b6000602082019050611ed86000830184611d56565b92915050565b7f4f6e6c792061646d696e2063616e20706572666f726d2074686973206163746960008201527f6f6e000000000000000000000000000000000000000000000000000000000000602082015250565b6000611f3a602283611920565b9150611f4582611ede565b604082019050919050565b60006020820190508181036000830152611f6981611f2d565b9050919050565b7f536368656d6520646f6573206e6f742065786973740000000000000000000000600082015250565b6000611fa6601583611920565b9150611fb182611f70565b602082019050919050565b60006020820190508181036000830152611fd581611f99565b9050919050565b7f536368656d65206973206e6f7420616374697665000000000000000000000000600082015250565b6000612012601483611920565b915061201d82611fdc565b602082019050919050565b6000602082019050818103600083015261204181612005565b9050919050565b7f416d6f756e74206d757374206265203e20300000000000000000000000000000600082015250565b600061207e601283611920565b915061208982612048565b602082019050919050565b600060208201905081810360008301526120ad81612071565b9050919050565b7f4e487b7100000000000000000000000000000000000000000000000000000000600052601160045260246000fd5b60006120ee826116ea565b91506120f9836116ea565b9250828201905080821115612111576121106120b4565b5b92915050565b7f4578636565647320616c6c6f6361746564206275646765740000000000000000600082015250565b600061214d601883611920565b915061215882612117565b602082019050919050565b6000602082019050818103600083015261217c81612140565b9050919050565b7f4e487b7100000000000000000000000000000000000000000000000000000000600052602260045260246000fd5b600060028204905060018216806121ca57607f821691505b6020821081036121dd576121dc612183565b5b50919050565b60008190508160005260206000209050919050565b60006020601f8301049050919050565b600082821b905092915050565b6000600883026122457fffffffffffffffffffffffffffffffffffffffffffffffffffffffffffffffff82612208565b61224f8683612208565b95508019841693508086168417925050509392505050565b6000819050919050565b600061228c612287612282846116ea565b612267565b6116ea565b9050919050565b6000819050919050565b6122a683612271565b6122ba6122b282612293565b848454612215565b825550505050565b600090565b6122cf6122c2565b6122da81848461229d565b505050565b5b818110156122fe576122f36000826122c7565b6001810190506122e0565b5050565b601f82111561234357612314816121e3565b61231d846121f8565b8101602085101561232c578190505b612340612338856121f8565b8301826122df565b50505b505050565b600082821c905092915050565b600061236660001984600802612348565b1980831691505092915050565b600061237f8383612355565b9150826002028217905092915050565b61239882611915565b67ffffffffffffffff8111156123b1576123b061173b565b5b6123bb82546121b2565b6123c6828285612302565b600060209050601f8311600181146123f957600084156123e7578287015190505b6123f18582612373565b865550612459565b601f198416612407866121e3565b60005b8281101561242f5784890151825560018201915060208501945060208101905061240a565b8683101561244c5784890151612448601f891682612355565b8355505b6001600288020188555050505b505050505050565b60006040820190506124766000830185611c0e565b8181036020830152612488818461195b565b90509392505050565b7f4e616d652063616e6e6f7420626520656d707479000000000000000000000000600082015250565b60006124c7601483611920565b91506124d282612491565b602082019050919050565b600060208201905081810360008301526124f6816124ba565b9050919050565b7f496e76616c69642062656e656669636961727900000000000000000000000000600082015250565b6000612533601383611920565b915061253e826124fd565b602082019050919050565b6000602082019050818103600083015261256281612526565b9050919050565b7f416c6c6f636174656420627564676574206d757374206265203e203000000000600082015250565b600061259f601c83611920565b91506125aa82612569565b602082019050919050565b600060208201905081810360008301526125ce81612592565b9050919050565b600060408201905081810360008301526125ef818561195b565b90506125fe6020830184611c0e565b9392505050565b7f4e487b7100000000000000000000000000000000000000000000000000000000600052603260045260246000fd5b600061263f826116ea565b91507fffffffffffffffffffffffffffffffffffffffffffffffffffffffffffffffff8203612671576126706120b4565b5b600182019050919050565b7f4465736372697074696f6e2063616e6e6f7420626520656d7074790000000000600082015250565b60006126b2601b83611920565b91506126bd8261267c565b602082019050919050565b600060208201905081810360008301526126e1816126a5565b9050919050565b60006126f3826116ea565b91506126fe836116ea565b9250828203905081811115612716576127156120b4565b5b9291505056fea264697066735822122066def27fd64bc4769310ee817b7ce4794950515b40c30e6e56dcbb31e493f82464736f6c63430008140033",
  "linkReferences": {},
  "deployedLinkReferences": {}
}